{
  "_format": "hh-sol-artifact-1",
  "contractName": "PixelPunks",
  "sourceName": "contracts/PixelPunks.sol",
  "abi": [
    {
      "inputs": [],
      "stateMutability": "nonpayable",
      "type": "constructor"
    },
    {
      "anonymous": false,
      "inputs": [
        {
          "indexed": true,
          "internalType": "address",
          "name": "owner",
          "type": "address"
        },
        {
          "indexed": true,
          "internalType": "address",
          "name": "approved",
          "type": "address"
        },
        {
          "indexed": true,
          "internalType": "uint256",
          "name": "tokenId",
          "type": "uint256"
        }
      ],
      "name": "Approval",
      "type": "event"
    },
    {
      "anonymous": false,
      "inputs": [
        {
          "indexed": true,
          "internalType": "address",
          "name": "owner",
          "type": "address"
        },
        {
          "indexed": true,
          "internalType": "address",
          "name": "operator",
          "type": "address"
        },
        {
          "indexed": false,
          "internalType": "bool",
          "name": "approved",
          "type": "bool"
        }
      ],
      "name": "ApprovalForAll",
      "type": "event"
    },
    {
      "anonymous": false,
      "inputs": [
        {
          "indexed": false,
          "internalType": "uint256",
          "name": "_fromTokenId",
          "type": "uint256"
        },
        {
          "indexed": false,
          "internalType": "uint256",
          "name": "_toTokenId",
          "type": "uint256"
        }
      ],
      "name": "BatchMetadataUpdate",
      "type": "event"
    },
    {
      "anonymous": false,
      "inputs": [
        {
          "indexed": false,
          "internalType": "uint256",
          "name": "_tokenId",
          "type": "uint256"
        }
      ],
      "name": "MetadataUpdate",
      "type": "event"
    },
    {
      "anonymous": false,
      "inputs": [
        {
          "indexed": true,
          "internalType": "address",
          "name": "previousOwner",
          "type": "address"
        },
        {
          "indexed": true,
          "internalType": "address",
          "name": "newOwner",
          "type": "address"
        }
      ],
      "name": "OwnershipTransferred",
      "type": "event"
    },
    {
      "anonymous": false,
      "inputs": [
        {
          "indexed": true,
          "internalType": "address",
          "name": "from",
          "type": "address"
        },
        {
          "indexed": true,
          "internalType": "address",
          "name": "to",
          "type": "address"
        },
        {
          "indexed": true,
          "internalType": "uint256",
          "name": "tokenId",
          "type": "uint256"
        }
      ],
      "name": "Transfer",
      "type": "event"
    },
    {
      "inputs": [
        {
          "internalType": "address",
          "name": "to",
          "type": "address"
        },
        {
          "internalType": "uint256",
          "name": "tokenId",
          "type": "uint256"
        }
      ],
      "name": "approve",
      "outputs": [],
      "stateMutability": "nonpayable",
      "type": "function"
    },
    {
      "inputs": [
        {
          "internalType": "address",
          "name": "owner",
          "type": "address"
        }
      ],
      "name": "balanceOf",
      "outputs": [
        {
          "internalType": "uint256",
          "name": "",
          "type": "uint256"
        }
      ],
      "stateMutability": "view",
      "type": "function"
    },
    {
      "inputs": [
        {
          "internalType": "uint256",
          "name": "tokenId",
          "type": "uint256"
        }
      ],
      "name": "getApproved",
      "outputs": [
        {
          "internalType": "address",
          "name": "",
          "type": "address"
        }
      ],
      "stateMutability": "view",
      "type": "function"
    },
    {
      "inputs": [
        {
          "internalType": "address",
          "name": "owner",
          "type": "address"
        },
        {
          "internalType": "address",
          "name": "operator",
          "type": "address"
        }
      ],
      "name": "isApprovedForAll",
      "outputs": [
        {
          "internalType": "bool",
          "name": "",
          "type": "bool"
        }
      ],
      "stateMutability": "view",
      "type": "function"
    },
    {
      "inputs": [
        {
          "internalType": "address",
          "name": "recipient",
          "type": "address"
        },
        {
          "internalType": "string",
          "name": "tokenURI",
          "type": "string"
        }
      ],
      "name": "mintNFT",
      "outputs": [
        {
          "internalType": "uint256",
          "name": "",
          "type": "uint256"
        }
      ],
      "stateMutability": "nonpayable",
      "type": "function"
    },
    {
      "inputs": [],
      "name": "name",
      "outputs": [
        {
          "internalType": "string",
          "name": "",
          "type": "string"
        }
      ],
      "stateMutability": "view",
      "type": "function"
    },
    {
      "inputs": [],
      "name": "owner",
      "outputs": [
        {
          "internalType": "address",
          "name": "",
          "type": "address"
        }
      ],
      "stateMutability": "view",
      "type": "function"
    },
    {
      "inputs": [
        {
          "internalType": "uint256",
          "name": "tokenId",
          "type": "uint256"
        }
      ],
      "name": "ownerOf",
      "outputs": [
        {
          "internalType": "address",
          "name": "",
          "type": "address"
        }
      ],
      "stateMutability": "view",
      "type": "function"
    },
    {
      "inputs": [],
      "name": "renounceOwnership",
      "outputs": [],
      "stateMutability": "nonpayable",
      "type": "function"
    },
    {
      "inputs": [
        {
          "internalType": "address",
          "name": "from",
          "type": "address"
        },
        {
          "internalType": "address",
          "name": "to",
          "type": "address"
        },
        {
          "internalType": "uint256",
          "name": "tokenId",
          "type": "uint256"
        }
      ],
      "name": "safeTransferFrom",
      "outputs": [],
      "stateMutability": "nonpayable",
      "type": "function"
    },
    {
      "inputs": [
        {
          "internalType": "address",
          "name": "from",
          "type": "address"
        },
        {
          "internalType": "address",
          "name": "to",
          "type": "address"
        },
        {
          "internalType": "uint256",
          "name": "tokenId",
          "type": "uint256"
        },
        {
          "internalType": "bytes",
          "name": "data",
          "type": "bytes"
        }
      ],
      "name": "safeTransferFrom",
      "outputs": [],
      "stateMutability": "nonpayable",
      "type": "function"
    },
    {
      "inputs": [
        {
          "internalType": "address",
          "name": "operator",
          "type": "address"
        },
        {
          "internalType": "bool",
          "name": "approved",
          "type": "bool"
        }
      ],
      "name": "setApprovalForAll",
      "outputs": [],
      "stateMutability": "nonpayable",
      "type": "function"
    },
    {
      "inputs": [
        {
          "internalType": "string",
          "name": "baseTokenURI",
          "type": "string"
        }
      ],
      "name": "setBaseTokenURI",
      "outputs": [],
      "stateMutability": "nonpayable",
      "type": "function"
    },
    {
      "inputs": [
        {
          "internalType": "bytes4",
          "name": "interfaceId",
          "type": "bytes4"
        }
      ],
      "name": "supportsInterface",
      "outputs": [
        {
          "internalType": "bool",
          "name": "",
          "type": "bool"
        }
      ],
      "stateMutability": "view",
      "type": "function"
    },
    {
      "inputs": [],
      "name": "symbol",
      "outputs": [
        {
          "internalType": "string",
          "name": "",
          "type": "string"
        }
      ],
      "stateMutability": "view",
      "type": "function"
    },
    {
      "inputs": [
        {
          "internalType": "uint256",
          "name": "tokenId",
          "type": "uint256"
        }
      ],
      "name": "tokenURI",
      "outputs": [
        {
          "internalType": "string",
          "name": "",
          "type": "string"
        }
      ],
      "stateMutability": "view",
      "type": "function"
    },
    {
      "inputs": [
        {
          "internalType": "address",
          "name": "from",
          "type": "address"
        },
        {
          "internalType": "address",
          "name": "to",
          "type": "address"
        },
        {
          "internalType": "uint256",
          "name": "tokenId",
          "type": "uint256"
        }
      ],
      "name": "transferFrom",
      "outputs": [],
      "stateMutability": "nonpayable",
      "type": "function"
    },
    {
      "inputs": [
        {
          "internalType": "address",
          "name": "newOwner",
          "type": "address"
        }
      ],
      "name": "transferOwnership",
      "outputs": [],
      "stateMutability": "nonpayable",
      "type": "function"
    }
  ],
  "bytecode": "0x60806040523480156200001157600080fd5b506040518060400160405280600a81526020017f506978656c50756e6b73000000000000000000000000000000000000000000008152506040518060400160405280600381526020017f505850000000000000000000000000000000000000000000000000000000000081525081600090816200008f919062000412565b508060019081620000a1919062000412565b505050620000c4620000b8620000ca60201b60201c565b620000d260201b60201c565b620004f9565b600033905090565b6000600760009054906101000a900473ffffffffffffffffffffffffffffffffffffffff16905081600760006101000a81548173ffffffffffffffffffffffffffffffffffffffff021916908373ffffffffffffffffffffffffffffffffffffffff1602179055508173ffffffffffffffffffffffffffffffffffffffff168173ffffffffffffffffffffffffffffffffffffffff167f8be0079c531659141344cd1fd0a4f28419497f9722a3daafe3b4186f6b6457e060405160405180910390a35050565b600081519050919050565b7f4e487b7100000000000000000000000000000000000000000000000000000000600052604160045260246000fd5b7f4e487b7100000000000000000000000000000000000000000000000000000000600052602260045260246000fd5b600060028204905060018216806200021a57607f821691505b60208210810362000230576200022f620001d2565b5b50919050565b60008190508160005260206000209050919050565b60006020601f8301049050919050565b600082821b905092915050565b6000600883026200029a7fffffffffffffffffffffffffffffffffffffffffffffffffffffffffffffffff826200025b565b620002a686836200025b565b95508019841693508086168417925050509392505050565b6000819050919050565b6000819050919050565b6000620002f3620002ed620002e784620002be565b620002c8565b620002be565b9050919050565b6000819050919050565b6200030f83620002d2565b620003276200031e82620002fa565b84845462000268565b825550505050565b600090565b6200033e6200032f565b6200034b81848462000304565b505050565b5b8181101562000373576200036760008262000334565b60018101905062000351565b5050565b601f821115620003c2576200038c8162000236565b62000397846200024b565b81016020851015620003a7578190505b620003bf620003b6856200024b565b83018262000350565b50505b505050565b600082821c905092915050565b6000620003e760001984600802620003c7565b1980831691505092915050565b6000620004028383620003d4565b9150826002028217905092915050565b6200041d8262000198565b67ffffffffffffffff811115620004395762000438620001a3565b5b62000445825462000201565b6200045282828562000377565b600060209050601f8311600181146200048a576000841562000475578287015190505b620004818582620003f4565b865550620004f1565b601f1984166200049a8662000236565b60005b82811015620004c4578489015182556001820191506020850194506020810190506200049d565b86831015620004e45784890151620004e0601f891682620003d4565b8355505b6001600288020188555050505b505050505050565b612f5680620005096000396000f3fe608060405234801561001057600080fd5b50600436106101165760003560e01c8063715018a6116100a2578063b88d4fde11610071578063b88d4fde146102cb578063c87b56dd146102e7578063e985e9c514610317578063eacabe1414610347578063f2fde38b1461037757610116565b8063715018a6146102695780638da5cb5b1461027357806395d89b4114610291578063a22cb465146102af57610116565b806323b872dd116100e957806323b872dd146101b557806330176e13146101d157806342842e0e146101ed5780636352211e1461020957806370a082311461023957610116565b806301ffc9a71461011b57806306fdde031461014b578063081812fc14610169578063095ea7b314610199575b600080fd5b61013560048036038101906101309190611cfe565b610393565b6040516101429190611d46565b60405180910390f35b6101536103f4565b6040516101609190611df1565b60405180910390f35b610183600480360381019061017e9190611e49565b610486565b6040516101909190611eb7565b60405180910390f35b6101b360048036038101906101ae9190611efe565b6104cc565b005b6101cf60048036038101906101ca9190611f3e565b6105e3565b005b6101eb60048036038101906101e691906120c6565b610643565b005b61020760048036038101906102029190611f3e565b61065e565b005b610223600480360381019061021e9190611e49565b61067e565b6040516102309190611eb7565b60405180910390f35b610253600480360381019061024e919061210f565b610704565b604051610260919061214b565b60405180910390f35b6102716107bb565b005b61027b6107cf565b6040516102889190611eb7565b60405180910390f35b6102996107f9565b6040516102a69190611df1565b60405180910390f35b6102c960048036038101906102c49190612192565b61088b565b005b6102e560048036038101906102e09190612273565b6108a1565b005b61030160048036038101906102fc9190611e49565b610903565b60405161030e9190611df1565b60405180910390f35b610331600480360381019061032c91906122f6565b610a15565b60405161033e9190611d46565b60405180910390f35b610361600480360381019061035c9190612336565b610aa9565b60405161036e919061214b565b60405180910390f35b610391600480360381019061038c919061210f565b610ae9565b005b6000634906490660e01b7bffffffffffffffffffffffffffffffffffffffffffffffffffffffff1916827bffffffffffffffffffffffffffffffffffffffffffffffffffffffff191614806103ed57506103ec82610b6c565b5b9050919050565b606060008054610403906123c1565b80601f016020809104026020016040519081016040528092919081815260200182805461042f906123c1565b801561047c5780601f106104515761010080835404028352916020019161047c565b820191906000526020600020905b81548152906001019060200180831161045f57829003601f168201915b5050505050905090565b600061049182610c4e565b6004600083815260200190815260200160002060009054906101000a900473ffffffffffffffffffffffffffffffffffffffff169050919050565b60006104d78261067e565b90508073ffffffffffffffffffffffffffffffffffffffff168373ffffffffffffffffffffffffffffffffffffffff1603610547576040517f08c379a000000000000000000000000000000000000000000000000000000000815260040161053e90612464565b60405180910390fd5b8073ffffffffffffffffffffffffffffffffffffffff16610566610c99565b73ffffffffffffffffffffffffffffffffffffffff16148061059557506105948161058f610c99565b610a15565b5b6105d4576040517f08c379a00000000000000000000000000000000000000000000000000000000081526004016105cb906124f6565b60405180910390fd5b6105de8383610ca1565b505050565b6105f46105ee610c99565b82610d5a565b610633576040517f08c379a000000000000000000000000000000000000000000000000000000000815260040161062a90612588565b60405180910390fd5b61063e838383610def565b505050565b61064b6110e8565b806009908161065a9190612754565b5050565b610679838383604051806020016040528060008152506108a1565b505050565b60008061068a83611166565b9050600073ffffffffffffffffffffffffffffffffffffffff168173ffffffffffffffffffffffffffffffffffffffff16036106fb576040517f08c379a00000000000000000000000000000000000000000000000000000000081526004016106f290612872565b60405180910390fd5b80915050919050565b60008073ffffffffffffffffffffffffffffffffffffffff168273ffffffffffffffffffffffffffffffffffffffff1603610774576040517f08c379a000000000000000000000000000000000000000000000000000000000815260040161076b90612904565b60405180910390fd5b600360008373ffffffffffffffffffffffffffffffffffffffff1673ffffffffffffffffffffffffffffffffffffffff168152602001908152602001600020549050919050565b6107c36110e8565b6107cd60006111a3565b565b6000600760009054906101000a900473ffffffffffffffffffffffffffffffffffffffff16905090565b606060018054610808906123c1565b80601f0160208091040260200160405190810160405280929190818152602001828054610834906123c1565b80156108815780601f1061085657610100808354040283529160200191610881565b820191906000526020600020905b81548152906001019060200180831161086457829003601f168201915b5050505050905090565b61089d610896610c99565b8383611269565b5050565b6108b26108ac610c99565b83610d5a565b6108f1576040517f08c379a00000000000000000000000000000000000000000000000000000000081526004016108e890612588565b60405180910390fd5b6108fd848484846113d5565b50505050565b606061090e82610c4e565b600060066000848152602001908152602001600020805461092e906123c1565b80601f016020809104026020016040519081016040528092919081815260200182805461095a906123c1565b80156109a75780601f1061097c576101008083540402835291602001916109a7565b820191906000526020600020905b81548152906001019060200180831161098a57829003601f168201915b5050505050905060006109b8611431565b905060008151036109cd578192505050610a10565b600082511115610a025780826040516020016109ea929190612960565b60405160208183030381529060405292505050610a10565b610a0b846114c3565b925050505b919050565b6000600560008473ffffffffffffffffffffffffffffffffffffffff1673ffffffffffffffffffffffffffffffffffffffff16815260200190815260200160002060008373ffffffffffffffffffffffffffffffffffffffff1673ffffffffffffffffffffffffffffffffffffffff16815260200190815260200160002060009054906101000a900460ff16905092915050565b6000610ab36110e8565b610abd600861152b565b6000610ac96008611541565b9050610ad5848261154f565b610adf818461176c565b8091505092915050565b610af16110e8565b600073ffffffffffffffffffffffffffffffffffffffff168173ffffffffffffffffffffffffffffffffffffffff1603610b60576040517f08c379a0000000000000000000000000000000000000000000000000000000008152600401610b57906129f6565b60405180910390fd5b610b69816111a3565b50565b60007f80ac58cd000000000000000000000000000000000000000000000000000000007bffffffffffffffffffffffffffffffffffffffffffffffffffffffff1916827bffffffffffffffffffffffffffffffffffffffffffffffffffffffff19161480610c3757507f5b5e139f000000000000000000000000000000000000000000000000000000007bffffffffffffffffffffffffffffffffffffffffffffffffffffffff1916827bffffffffffffffffffffffffffffffffffffffffffffffffffffffff1916145b80610c475750610c4682611810565b5b9050919050565b610c578161187a565b610c96576040517f08c379a0000000000000000000000000000000000000000000000000000000008152600401610c8d90612872565b60405180910390fd5b50565b600033905090565b816004600083815260200190815260200160002060006101000a81548173ffffffffffffffffffffffffffffffffffffffff021916908373ffffffffffffffffffffffffffffffffffffffff160217905550808273ffffffffffffffffffffffffffffffffffffffff16610d148361067e565b73ffffffffffffffffffffffffffffffffffffffff167f8c5be1e5ebec7d5bd14f71427d1e84f3dd0314c0f7b2291e5b200ac8c7c3b92560405160405180910390a45050565b600080610d668361067e565b90508073ffffffffffffffffffffffffffffffffffffffff168473ffffffffffffffffffffffffffffffffffffffff161480610da85750610da78185610a15565b5b80610de657508373ffffffffffffffffffffffffffffffffffffffff16610dce84610486565b73ffffffffffffffffffffffffffffffffffffffff16145b91505092915050565b8273ffffffffffffffffffffffffffffffffffffffff16610e0f8261067e565b73ffffffffffffffffffffffffffffffffffffffff1614610e65576040517f08c379a0000000000000000000000000000000000000000000000000000000008152600401610e5c90612a88565b60405180910390fd5b600073ffffffffffffffffffffffffffffffffffffffff168273ffffffffffffffffffffffffffffffffffffffff1603610ed4576040517f08c379a0000000000000000000000000000000000000000000000000000000008152600401610ecb90612b1a565b60405180910390fd5b610ee183838360016118bb565b8273ffffffffffffffffffffffffffffffffffffffff16610f018261067e565b73ffffffffffffffffffffffffffffffffffffffff1614610f57576040517f08c379a0000000000000000000000000000000000000000000000000000000008152600401610f4e90612a88565b60405180910390fd5b6004600082815260200190815260200160002060006101000a81549073ffffffffffffffffffffffffffffffffffffffff02191690556001600360008573ffffffffffffffffffffffffffffffffffffffff1673ffffffffffffffffffffffffffffffffffffffff168152602001908152602001600020600082825403925050819055506001600360008473ffffffffffffffffffffffffffffffffffffffff1673ffffffffffffffffffffffffffffffffffffffff16815260200190815260200160002060008282540192505081905550816002600083815260200190815260200160002060006101000a81548173ffffffffffffffffffffffffffffffffffffffff021916908373ffffffffffffffffffffffffffffffffffffffff160217905550808273ffffffffffffffffffffffffffffffffffffffff168473ffffffffffffffffffffffffffffffffffffffff167fddf252ad1be2c89b69c2b068fc378daa952ba7f163c4a11628f55a4df523b3ef60405160405180910390a46110e383838360016118c1565b505050565b6110f0610c99565b73ffffffffffffffffffffffffffffffffffffffff1661110e6107cf565b73ffffffffffffffffffffffffffffffffffffffff1614611164576040517f08c379a000000000000000000000000000000000000000000000000000000000815260040161115b90612b86565b60405180910390fd5b565b60006002600083815260200190815260200160002060009054906101000a900473ffffffffffffffffffffffffffffffffffffffff169050919050565b6000600760009054906101000a900473ffffffffffffffffffffffffffffffffffffffff16905081600760006101000a81548173ffffffffffffffffffffffffffffffffffffffff021916908373ffffffffffffffffffffffffffffffffffffffff1602179055508173ffffffffffffffffffffffffffffffffffffffff168173ffffffffffffffffffffffffffffffffffffffff167f8be0079c531659141344cd1fd0a4f28419497f9722a3daafe3b4186f6b6457e060405160405180910390a35050565b8173ffffffffffffffffffffffffffffffffffffffff168373ffffffffffffffffffffffffffffffffffffffff16036112d7576040517f08c379a00000000000000000000000000000000000000000000000000000000081526004016112ce90612bf2565b60405180910390fd5b80600560008573ffffffffffffffffffffffffffffffffffffffff1673ffffffffffffffffffffffffffffffffffffffff16815260200190815260200160002060008473ffffffffffffffffffffffffffffffffffffffff1673ffffffffffffffffffffffffffffffffffffffff16815260200190815260200160002060006101000a81548160ff0219169083151502179055508173ffffffffffffffffffffffffffffffffffffffff168373ffffffffffffffffffffffffffffffffffffffff167f17307eab39ab6107e8899845ad3d59bd9653f200f220920489ca2b5937696c31836040516113c89190611d46565b60405180910390a3505050565b6113e0848484610def565b6113ec848484846118c7565b61142b576040517f08c379a000000000000000000000000000000000000000000000000000000000815260040161142290612c84565b60405180910390fd5b50505050565b606060098054611440906123c1565b80601f016020809104026020016040519081016040528092919081815260200182805461146c906123c1565b80156114b95780601f1061148e576101008083540402835291602001916114b9565b820191906000526020600020905b81548152906001019060200180831161149c57829003601f168201915b5050505050905090565b60606114ce82610c4e565b60006114d8611431565b905060008151116114f85760405180602001604052806000815250611523565b8061150284611a4e565b604051602001611513929190612960565b6040516020818303038152906040525b915050919050565b6001816000016000828254019250508190555050565b600081600001549050919050565b600073ffffffffffffffffffffffffffffffffffffffff168273ffffffffffffffffffffffffffffffffffffffff16036115be576040517f08c379a00000000000000000000000000000000000000000000000000000000081526004016115b590612cf0565b60405180910390fd5b6115c78161187a565b15611607576040517f08c379a00000000000000000000000000000000000000000000000000000000081526004016115fe90612d5c565b60405180910390fd5b6116156000838360016118bb565b61161e8161187a565b1561165e576040517f08c379a000000000000000000000000000000000000000000000000000000000815260040161165590612d5c565b60405180910390fd5b6001600360008473ffffffffffffffffffffffffffffffffffffffff1673ffffffffffffffffffffffffffffffffffffffff16815260200190815260200160002060008282540192505081905550816002600083815260200190815260200160002060006101000a81548173ffffffffffffffffffffffffffffffffffffffff021916908373ffffffffffffffffffffffffffffffffffffffff160217905550808273ffffffffffffffffffffffffffffffffffffffff16600073ffffffffffffffffffffffffffffffffffffffff167fddf252ad1be2c89b69c2b068fc378daa952ba7f163c4a11628f55a4df523b3ef60405160405180910390a46117686000838360016118c1565b5050565b6117758261187a565b6117b4576040517f08c379a00000000000000000000000000000000000000000000000000000000081526004016117ab90612dee565b60405180910390fd5b806006600084815260200190815260200160002090816117d49190612754565b507ff8e1a15aba9398e019f0b49df1a4fde98ee17ae345cb5f6b5e2c27f5033e8ce782604051611804919061214b565b60405180910390a15050565b60007f01ffc9a7000000000000000000000000000000000000000000000000000000007bffffffffffffffffffffffffffffffffffffffffffffffffffffffff1916827bffffffffffffffffffffffffffffffffffffffffffffffffffffffff1916149050919050565b60008073ffffffffffffffffffffffffffffffffffffffff1661189c83611166565b73ffffffffffffffffffffffffffffffffffffffff1614159050919050565b50505050565b50505050565b60006118e88473ffffffffffffffffffffffffffffffffffffffff16611b1c565b15611a41578373ffffffffffffffffffffffffffffffffffffffff1663150b7a02611911610c99565b8786866040518563ffffffff1660e01b81526004016119339493929190612e63565b6020604051808303816000875af192505050801561196f57506040513d601f19601f8201168201806040525081019061196c9190612ec4565b60015b6119f1573d806000811461199f576040519150601f19603f3d011682016040523d82523d6000602084013e6119a4565b606091505b5060008151036119e9576040517f08c379a00000000000000000000000000000000000000000000000000000000081526004016119e090612c84565b60405180910390fd5b805181602001fd5b63150b7a0260e01b7bffffffffffffffffffffffffffffffffffffffffffffffffffffffff1916817bffffffffffffffffffffffffffffffffffffffffffffffffffffffff191614915050611a46565b600190505b949350505050565b606060006001611a5d84611b3f565b01905060008167ffffffffffffffff811115611a7c57611a7b611f9b565b5b6040519080825280601f01601f191660200182016040528015611aae5781602001600182028036833780820191505090505b509050600082602001820190505b600115611b11578080600190039150507f3031323334353637383961626364656600000000000000000000000000000000600a86061a8153600a8581611b0557611b04612ef1565b5b04945060008503611abc575b819350505050919050565b6000808273ffffffffffffffffffffffffffffffffffffffff163b119050919050565b600080600090507a184f03e93ff9f4daa797ed6e38ed64bf6a1f0100000000000000008310611b9d577a184f03e93ff9f4daa797ed6e38ed64bf6a1f0100000000000000008381611b9357611b92612ef1565b5b0492506040810190505b6d04ee2d6d415b85acef81000000008310611bda576d04ee2d6d415b85acef81000000008381611bd057611bcf612ef1565b5b0492506020810190505b662386f26fc100008310611c0957662386f26fc100008381611bff57611bfe612ef1565b5b0492506010810190505b6305f5e1008310611c32576305f5e1008381611c2857611c27612ef1565b5b0492506008810190505b6127108310611c57576127108381611c4d57611c4c612ef1565b5b0492506004810190505b60648310611c7a5760648381611c7057611c6f612ef1565b5b0492506002810190505b600a8310611c89576001810190505b80915050919050565b6000604051905090565b600080fd5b600080fd5b60007fffffffff0000000000000000000000000000000000000000000000000000000082169050919050565b611cdb81611ca6565b8114611ce657600080fd5b50565b600081359050611cf881611cd2565b92915050565b600060208284031215611d1457611d13611c9c565b5b6000611d2284828501611ce9565b91505092915050565b60008115159050919050565b611d4081611d2b565b82525050565b6000602082019050611d5b6000830184611d37565b92915050565b600081519050919050565b600082825260208201905092915050565b60005b83811015611d9b578082015181840152602081019050611d80565b60008484015250505050565b6000601f19601f8301169050919050565b6000611dc382611d61565b611dcd8185611d6c565b9350611ddd818560208601611d7d565b611de681611da7565b840191505092915050565b60006020820190508181036000830152611e0b8184611db8565b905092915050565b6000819050919050565b611e2681611e13565b8114611e3157600080fd5b50565b600081359050611e4381611e1d565b92915050565b600060208284031215611e5f57611e5e611c9c565b5b6000611e6d84828501611e34565b91505092915050565b600073ffffffffffffffffffffffffffffffffffffffff82169050919050565b6000611ea182611e76565b9050919050565b611eb181611e96565b82525050565b6000602082019050611ecc6000830184611ea8565b92915050565b611edb81611e96565b8114611ee657600080fd5b50565b600081359050611ef881611ed2565b92915050565b60008060408385031215611f1557611f14611c9c565b5b6000611f2385828601611ee9565b9250506020611f3485828601611e34565b9150509250929050565b600080600060608486031215611f5757611f56611c9c565b5b6000611f6586828701611ee9565b9350506020611f7686828701611ee9565b9250506040611f8786828701611e34565b9150509250925092565b600080fd5b600080fd5b7f4e487b7100000000000000000000000000000000000000000000000000000000600052604160045260246000fd5b611fd382611da7565b810181811067ffffffffffffffff82111715611ff257611ff1611f9b565b5b80604052505050565b6000612005611c92565b90506120118282611fca565b919050565b600067ffffffffffffffff82111561203157612030611f9b565b5b61203a82611da7565b9050602081019050919050565b82818337600083830152505050565b600061206961206484612016565b611ffb565b90508281526020810184848401111561208557612084611f96565b5b612090848285612047565b509392505050565b600082601f8301126120ad576120ac611f91565b5b81356120bd848260208601612056565b91505092915050565b6000602082840312156120dc576120db611c9c565b5b600082013567ffffffffffffffff8111156120fa576120f9611ca1565b5b61210684828501612098565b91505092915050565b60006020828403121561212557612124611c9c565b5b600061213384828501611ee9565b91505092915050565b61214581611e13565b82525050565b6000602082019050612160600083018461213c565b92915050565b61216f81611d2b565b811461217a57600080fd5b50565b60008135905061218c81612166565b92915050565b600080604083850312156121a9576121a8611c9c565b5b60006121b785828601611ee9565b92505060206121c88582860161217d565b9150509250929050565b600067ffffffffffffffff8211156121ed576121ec611f9b565b5b6121f682611da7565b9050602081019050919050565b6000612216612211846121d2565b611ffb565b90508281526020810184848401111561223257612231611f96565b5b61223d848285612047565b509392505050565b600082601f83011261225a57612259611f91565b5b813561226a848260208601612203565b91505092915050565b6000806000806080858703121561228d5761228c611c9c565b5b600061229b87828801611ee9565b94505060206122ac87828801611ee9565b93505060406122bd87828801611e34565b925050606085013567ffffffffffffffff8111156122de576122dd611ca1565b5b6122ea87828801612245565b91505092959194509250565b6000806040838503121561230d5761230c611c9c565b5b600061231b85828601611ee9565b925050602061232c85828601611ee9565b9150509250929050565b6000806040838503121561234d5761234c611c9c565b5b600061235b85828601611ee9565b925050602083013567ffffffffffffffff81111561237c5761237b611ca1565b5b61238885828601612098565b9150509250929050565b7f4e487b7100000000000000000000000000000000000000000000000000000000600052602260045260246000fd5b600060028204905060018216806123d957607f821691505b6020821081036123ec576123eb612392565b5b50919050565b7f4552433732313a20617070726f76616c20746f2063757272656e74206f776e6560008201527f7200000000000000000000000000000000000000000000000000000000000000602082015250565b600061244e602183611d6c565b9150612459826123f2565b604082019050919050565b6000602082019050818103600083015261247d81612441565b9050919050565b7f4552433732313a20617070726f76652063616c6c6572206973206e6f7420746f60008201527f6b656e206f776e6572206f7220617070726f76656420666f7220616c6c000000602082015250565b60006124e0603d83611d6c565b91506124eb82612484565b604082019050919050565b6000602082019050818103600083015261250f816124d3565b9050919050565b7f4552433732313a2063616c6c6572206973206e6f7420746f6b656e206f776e6560008201527f72206f7220617070726f76656400000000000000000000000000000000000000602082015250565b6000612572602d83611d6c565b915061257d82612516565b604082019050919050565b600060208201905081810360008301526125a181612565565b9050919050565b60008190508160005260206000209050919050565b60006020601f8301049050919050565b600082821b905092915050565b60006008830261260a7fffffffffffffffffffffffffffffffffffffffffffffffffffffffffffffffff826125cd565b61261486836125cd565b95508019841693508086168417925050509392505050565b6000819050919050565b600061265161264c61264784611e13565b61262c565b611e13565b9050919050565b6000819050919050565b61266b83612636565b61267f61267782612658565b8484546125da565b825550505050565b600090565b612694612687565b61269f818484612662565b505050565b5b818110156126c3576126b860008261268c565b6001810190506126a5565b5050565b601f821115612708576126d9816125a8565b6126e2846125bd565b810160208510156126f1578190505b6127056126fd856125bd565b8301826126a4565b50505b505050565b600082821c905092915050565b600061272b6000198460080261270d565b1980831691505092915050565b6000612744838361271a565b9150826002028217905092915050565b61275d82611d61565b67ffffffffffffffff81111561277657612775611f9b565b5b61278082546123c1565b61278b8282856126c7565b600060209050601f8311600181146127be57600084156127ac578287015190505b6127b68582612738565b86555061281e565b601f1984166127cc866125a8565b60005b828110156127f4578489015182556001820191506020850194506020810190506127cf565b86831015612811578489015161280d601f89168261271a565b8355505b6001600288020188555050505b505050505050565b7f4552433732313a20696e76616c696420746f6b656e2049440000000000000000600082015250565b600061285c601883611d6c565b915061286782612826565b602082019050919050565b6000602082019050818103600083015261288b8161284f565b9050919050565b7f4552433732313a2061646472657373207a65726f206973206e6f74206120766160008201527f6c6964206f776e65720000000000000000000000000000000000000000000000602082015250565b60006128ee602983611d6c565b91506128f982612892565b604082019050919050565b6000602082019050818103600083015261291d816128e1565b9050919050565b600081905092915050565b600061293a82611d61565b6129448185612924565b9350612954818560208601611d7d565b80840191505092915050565b600061296c828561292f565b9150612978828461292f565b91508190509392505050565b7f4f776e61626c653a206e6577206f776e657220697320746865207a65726f206160008201527f6464726573730000000000000000000000000000000000000000000000000000602082015250565b60006129e0602683611d6c565b91506129eb82612984565b604082019050919050565b60006020820190508181036000830152612a0f816129d3565b9050919050565b7f4552433732313a207472616e736665722066726f6d20696e636f72726563742060008201527f6f776e6572000000000000000000000000000000000000000000000000000000602082015250565b6000612a72602583611d6c565b9150612a7d82612a16565b604082019050919050565b60006020820190508181036000830152612aa181612a65565b9050919050565b7f4552433732313a207472616e7366657220746f20746865207a65726f2061646460008201527f7265737300000000000000000000000000000000000000000000000000000000602082015250565b6000612b04602483611d6c565b9150612b0f82612aa8565b604082019050919050565b60006020820190508181036000830152612b3381612af7565b9050919050565b7f4f776e61626c653a2063616c6c6572206973206e6f7420746865206f776e6572600082015250565b6000612b70602083611d6c565b9150612b7b82612b3a565b602082019050919050565b60006020820190508181036000830152612b9f81612b63565b9050919050565b7f4552433732313a20617070726f766520746f2063616c6c657200000000000000600082015250565b6000612bdc601983611d6c565b9150612be782612ba6565b602082019050919050565b60006020820190508181036000830152612c0b81612bcf565b9050919050565b7f4552433732313a207472616e7366657220746f206e6f6e20455243373231526560008201527f63656976657220696d706c656d656e7465720000000000000000000000000000602082015250565b6000612c6e603283611d6c565b9150612c7982612c12565b604082019050919050565b60006020820190508181036000830152612c9d81612c61565b9050919050565b7f4552433732313a206d696e7420746f20746865207a65726f2061646472657373600082015250565b6000612cda602083611d6c565b9150612ce582612ca4565b602082019050919050565b60006020820190508181036000830152612d0981612ccd565b9050919050565b7f4552433732313a20746f6b656e20616c7265616479206d696e74656400000000600082015250565b6000612d46601c83611d6c565b9150612d5182612d10565b602082019050919050565b60006020820190508181036000830152612d7581612d39565b9050919050565b7f45524337323155524953746f726167653a2055524920736574206f66206e6f6e60008201527f6578697374656e7420746f6b656e000000000000000000000000000000000000602082015250565b6000612dd8602e83611d6c565b9150612de382612d7c565b604082019050919050565b60006020820190508181036000830152612e0781612dcb565b9050919050565b600081519050919050565b600082825260208201905092915050565b6000612e3582612e0e565b612e3f8185612e19565b9350612e4f818560208601611d7d565b612e5881611da7565b840191505092915050565b6000608082019050612e786000830187611ea8565b612e856020830186611ea8565b612e92604083018561213c565b8181036060830152612ea48184612e2a565b905095945050505050565b600081519050612ebe81611cd2565b92915050565b600060208284031215612eda57612ed9611c9c565b5b6000612ee884828501612eaf565b91505092915050565b7f4e487b7100000000000000000000000000000000000000000000000000000000600052601260045260246000fdfea2646970667358221220286d8a80cbcaad920b8602108cc80f45138de756426c2129a36ee8a292c6a4bb64736f6c63430008120033",
  "linkReferences": {},
  "deployedLinkReferences": {}
}