{
  "contractName": "PixelPunks",
  "abi": [
    {
      "inputs": [
        {
          "internalType": "string",
          "name": "baseTokenURI",
          "type": "string"
        }
      ],
      "stateMutability": "nonpayable",
      "type": "constructor"
    },
    {
      "anonymous": false,
      "inputs": [
        {
          "indexed": true,
          "internalType": "address",
          "name": "owner",
          "type": "address"
        },
        {
          "indexed": true,
          "internalType": "address",
          "name": "approved",
          "type": "address"
        },
        {
          "indexed": true,
          "internalType": "uint256",
          "name": "tokenId",
          "type": "uint256"
        }
      ],
      "name": "Approval",
      "type": "event"
    },
    {
      "anonymous": false,
      "inputs": [
        {
          "indexed": true,
          "internalType": "address",
          "name": "owner",
          "type": "address"
        },
        {
          "indexed": true,
          "internalType": "address",
          "name": "operator",
          "type": "address"
        },
        {
          "indexed": false,
          "internalType": "bool",
          "name": "approved",
          "type": "bool"
        }
      ],
      "name": "ApprovalForAll",
      "type": "event"
    },
    {
      "anonymous": false,
      "inputs": [
        {
          "indexed": true,
          "internalType": "address",
          "name": "previousOwner",
          "type": "address"
        },
        {
          "indexed": true,
          "internalType": "address",
          "name": "newOwner",
          "type": "address"
        }
      ],
      "name": "OwnershipTransferred",
      "type": "event"
    },
    {
      "anonymous": false,
      "inputs": [
        {
          "indexed": true,
          "internalType": "address",
          "name": "from",
          "type": "address"
        },
        {
          "indexed": true,
          "internalType": "address",
          "name": "to",
          "type": "address"
        },
        {
          "indexed": true,
          "internalType": "uint256",
          "name": "tokenId",
          "type": "uint256"
        }
      ],
      "name": "Transfer",
      "type": "event"
    },
    {
      "inputs": [
        {
          "internalType": "address",
          "name": "to",
          "type": "address"
        },
        {
          "internalType": "uint256",
          "name": "tokenId",
          "type": "uint256"
        }
      ],
      "name": "approve",
      "outputs": [],
      "stateMutability": "nonpayable",
      "type": "function"
    },
    {
      "inputs": [
        {
          "internalType": "address",
          "name": "owner",
          "type": "address"
        }
      ],
      "name": "balanceOf",
      "outputs": [
        {
          "internalType": "uint256",
          "name": "",
          "type": "uint256"
        }
      ],
      "stateMutability": "view",
      "type": "function",
      "constant": true
    },
    {
      "inputs": [
        {
          "internalType": "uint256",
          "name": "tokenId",
          "type": "uint256"
        }
      ],
      "name": "getApproved",
      "outputs": [
        {
          "internalType": "address",
          "name": "",
          "type": "address"
        }
      ],
      "stateMutability": "view",
      "type": "function",
      "constant": true
    },
    {
      "inputs": [
        {
          "internalType": "address",
          "name": "owner",
          "type": "address"
        },
        {
          "internalType": "address",
          "name": "operator",
          "type": "address"
        }
      ],
      "name": "isApprovedForAll",
      "outputs": [
        {
          "internalType": "bool",
          "name": "",
          "type": "bool"
        }
      ],
      "stateMutability": "view",
      "type": "function",
      "constant": true
    },
    {
      "inputs": [],
      "name": "name",
      "outputs": [
        {
          "internalType": "string",
          "name": "",
          "type": "string"
        }
      ],
      "stateMutability": "view",
      "type": "function",
      "constant": true
    },
    {
      "inputs": [],
      "name": "owner",
      "outputs": [
        {
          "internalType": "address",
          "name": "",
          "type": "address"
        }
      ],
      "stateMutability": "view",
      "type": "function",
      "constant": true
    },
    {
      "inputs": [
        {
          "internalType": "uint256",
          "name": "tokenId",
          "type": "uint256"
        }
      ],
      "name": "ownerOf",
      "outputs": [
        {
          "internalType": "address",
          "name": "",
          "type": "address"
        }
      ],
      "stateMutability": "view",
      "type": "function",
      "constant": true
    },
    {
      "inputs": [],
      "name": "renounceOwnership",
      "outputs": [],
      "stateMutability": "nonpayable",
      "type": "function"
    },
    {
      "inputs": [
        {
          "internalType": "address",
          "name": "from",
          "type": "address"
        },
        {
          "internalType": "address",
          "name": "to",
          "type": "address"
        },
        {
          "internalType": "uint256",
          "name": "tokenId",
          "type": "uint256"
        }
      ],
      "name": "safeTransferFrom",
      "outputs": [],
      "stateMutability": "nonpayable",
      "type": "function"
    },
    {
      "inputs": [
        {
          "internalType": "address",
          "name": "from",
          "type": "address"
        },
        {
          "internalType": "address",
          "name": "to",
          "type": "address"
        },
        {
          "internalType": "uint256",
          "name": "tokenId",
          "type": "uint256"
        },
        {
          "internalType": "bytes",
          "name": "data",
          "type": "bytes"
        }
      ],
      "name": "safeTransferFrom",
      "outputs": [],
      "stateMutability": "nonpayable",
      "type": "function"
    },
    {
      "inputs": [
        {
          "internalType": "address",
          "name": "operator",
          "type": "address"
        },
        {
          "internalType": "bool",
          "name": "approved",
          "type": "bool"
        }
      ],
      "name": "setApprovalForAll",
      "outputs": [],
      "stateMutability": "nonpayable",
      "type": "function"
    },
    {
      "inputs": [
        {
          "internalType": "bytes4",
          "name": "interfaceId",
          "type": "bytes4"
        }
      ],
      "name": "supportsInterface",
      "outputs": [
        {
          "internalType": "bool",
          "name": "",
          "type": "bool"
        }
      ],
      "stateMutability": "view",
      "type": "function",
      "constant": true
    },
    {
      "inputs": [],
      "name": "symbol",
      "outputs": [
        {
          "internalType": "string",
          "name": "",
          "type": "string"
        }
      ],
      "stateMutability": "view",
      "type": "function",
      "constant": true
    },
    {
      "inputs": [
        {
          "internalType": "address",
          "name": "from",
          "type": "address"
        },
        {
          "internalType": "address",
          "name": "to",
          "type": "address"
        },
        {
          "internalType": "uint256",
          "name": "tokenId",
          "type": "uint256"
        }
      ],
      "name": "transferFrom",
      "outputs": [],
      "stateMutability": "nonpayable",
      "type": "function"
    },
    {
      "inputs": [
        {
          "internalType": "address",
          "name": "newOwner",
          "type": "address"
        }
      ],
      "name": "transferOwnership",
      "outputs": [],
      "stateMutability": "nonpayable",
      "type": "function"
    },
    {
      "inputs": [
        {
          "internalType": "address",
          "name": "to",
          "type": "address"
        }
      ],
      "name": "mintRare",
      "outputs": [
        {
          "internalType": "uint256",
          "name": "",
          "type": "uint256"
        }
      ],
      "stateMutability": "nonpayable",
      "type": "function"
    },
    {
      "inputs": [
        {
          "internalType": "address",
          "name": "to",
          "type": "address"
        }
      ],
      "name": "mintCommon",
      "outputs": [
        {
          "internalType": "uint256",
          "name": "",
          "type": "uint256"
        }
      ],
      "stateMutability": "nonpayable",
      "type": "function"
    },
    {
      "inputs": [
        {
          "internalType": "uint256",
          "name": "tokenId",
          "type": "uint256"
        }
      ],
      "name": "tokenURI",
      "outputs": [
        {
          "internalType": "string",
          "name": "",
          "type": "string"
        }
      ],
      "stateMutability": "view",
      "type": "function",
      "constant": true
    }
  ],
  "bytecode": "0x608060405260006007556101f46008553480156200001c57600080fd5b506040516200319d3803806200319d833981810160405281019062000042919062000312565b6040518060400160405280600b81526020017f506978656c2050756e6b730000000000000000000000000000000000000000008152506040518060400160405280600481526020017f50504e4b000000000000000000000000000000000000000000000000000000008152508160009080519060200190620000c6929190620001f0565b508060019080519060200190620000df929190620001f0565b50505062000102620000f66200012260201b60201c565b6200012a60201b60201c565b80600990805190602001906200011a929190620001f0565b5050620004c7565b600033905090565b6000600660009054906101000a900473ffffffffffffffffffffffffffffffffffffffff16905081600660006101000a81548173ffffffffffffffffffffffffffffffffffffffff021916908373ffffffffffffffffffffffffffffffffffffffff1602179055508173ffffffffffffffffffffffffffffffffffffffff168173ffffffffffffffffffffffffffffffffffffffff167f8be0079c531659141344cd1fd0a4f28419497f9722a3daafe3b4186f6b6457e060405160405180910390a35050565b828054620001fe90620003ec565b90600052602060002090601f0160209004810192826200022257600085556200026e565b82601f106200023d57805160ff19168380011785556200026e565b828001600101855582156200026e579182015b828111156200026d57825182559160200191906001019062000250565b5b5090506200027d919062000281565b5090565b5b808211156200029c57600081600090555060010162000282565b5090565b6000620002b7620002b18462000380565b62000357565b905082815260208101848484011115620002d057600080fd5b620002dd848285620003b6565b509392505050565b600082601f830112620002f757600080fd5b815162000309848260208601620002a0565b91505092915050565b6000602082840312156200032557600080fd5b600082015167ffffffffffffffff8111156200034057600080fd5b6200034e84828501620002e5565b91505092915050565b60006200036362000376565b905062000371828262000422565b919050565b6000604051905090565b600067ffffffffffffffff8211156200039e576200039d62000487565b5b620003a982620004b6565b9050602081019050919050565b60005b83811015620003d6578082015181840152602081019050620003b9565b83811115620003e6576000848401525b50505050565b600060028204905060018216806200040557607f821691505b602082108114156200041c576200041b62000458565b5b50919050565b6200042d82620004b6565b810181811067ffffffffffffffff821117156200044f576200044e62000487565b5b80604052505050565b7f4e487b7100000000000000000000000000000000000000000000000000000000600052602260045260246000fd5b7f4e487b7100000000000000000000000000000000000000000000000000000000600052604160045260246000fd5b6000601f19601f8301169050919050565b612cc680620004d76000396000f3fe608060405234801561001057600080fd5b50600436106101165760003560e01c80638d36f8f4116100a2578063b88d4fde11610071578063b88d4fde146102df578063c87b56dd146102fb578063d47e107e1461032b578063e985e9c51461035b578063f2fde38b1461038b57610116565b80638d36f8f4146102575780638da5cb5b1461028757806395d89b41146102a5578063a22cb465146102c357610116565b806323b872dd116100e957806323b872dd146101b557806342842e0e146101d15780636352211e146101ed57806370a082311461021d578063715018a61461024d57610116565b806301ffc9a71461011b57806306fdde031461014b578063081812fc14610169578063095ea7b314610199575b600080fd5b61013560048036038101906101309190611fa9565b6103a7565b6040516101429190612399565b60405180910390f35b610153610489565b60405161016091906123b4565b60405180910390f35b610183600480360381019061017e9190611ffb565b61051b565b6040516101909190612332565b60405180910390f35b6101b360048036038101906101ae9190611f6d565b610561565b005b6101cf60048036038101906101ca9190611e67565b610679565b005b6101eb60048036038101906101e69190611e67565b6106d9565b005b61020760048036038101906102029190611ffb565b6106f9565b6040516102149190612332565b60405180910390f35b61023760048036038101906102329190611e02565b610780565b60405161024491906125b6565b60405180910390f35b610255610838565b005b610271600480360381019061026c9190611e02565b61084c565b60405161027e91906125b6565b60405180910390f35b61028f6108fa565b60405161029c9190612332565b60405180910390f35b6102ad610924565b6040516102ba91906123b4565b60405180910390f35b6102dd60048036038101906102d89190611f31565b6109b6565b005b6102f960048036038101906102f49190611eb6565b6109cc565b005b61031560048036038101906103109190611ffb565b610a2e565b60405161032291906123b4565b60405180910390f35b61034560048036038101906103409190611e02565b610b0a565b60405161035291906125b6565b60405180910390f35b61037560048036038101906103709190611e2b565b610bb8565b6040516103829190612399565b60405180910390f35b6103a560048036038101906103a09190611e02565b610c4c565b005b60007f80ac58cd000000000000000000000000000000000000000000000000000000007bffffffffffffffffffffffffffffffffffffffffffffffffffffffff1916827bffffffffffffffffffffffffffffffffffffffffffffffffffffffff1916148061047257507f5b5e139f000000000000000000000000000000000000000000000000000000007bffffffffffffffffffffffffffffffffffffffffffffffffffffffff1916827bffffffffffffffffffffffffffffffffffffffffffffffffffffffff1916145b80610482575061048182610cd0565b5b9050919050565b60606000805461049890612776565b80601f01602080910402602001604051908101604052809291908181526020018280546104c490612776565b80156105115780601f106104e657610100808354040283529160200191610511565b820191906000526020600020905b8154815290600101906020018083116104f457829003601f168201915b5050505050905090565b600061052682610d3a565b6004600083815260200190815260200160002060009054906101000a900473ffffffffffffffffffffffffffffffffffffffff169050919050565b600061056c826106f9565b90508073ffffffffffffffffffffffffffffffffffffffff168373ffffffffffffffffffffffffffffffffffffffff1614156105dd576040517f08c379a00000000000000000000000000000000000000000000000000000000081526004016105d490612556565b60405180910390fd5b8073ffffffffffffffffffffffffffffffffffffffff166105fc610d85565b73ffffffffffffffffffffffffffffffffffffffff16148061062b575061062a81610625610d85565b610bb8565b5b61066a576040517f08c379a000000000000000000000000000000000000000000000000000000000815260040161066190612576565b60405180910390fd5b6106748383610d8d565b505050565b61068a610684610d85565b82610e46565b6106c9576040517f08c379a00000000000000000000000000000000000000000000000000000000081526004016106c0906123d6565b60405180910390fd5b6106d4838383610edb565b505050565b6106f4838383604051806020016040528060008152506109cc565b505050565b600080610705836111d5565b9050600073ffffffffffffffffffffffffffffffffffffffff168173ffffffffffffffffffffffffffffffffffffffff161415610777576040517f08c379a000000000000000000000000000000000000000000000000000000000815260040161076e90612536565b60405180910390fd5b80915050919050565b60008073ffffffffffffffffffffffffffffffffffffffff168273ffffffffffffffffffffffffffffffffffffffff1614156107f1576040517f08c379a00000000000000000000000000000000000000000000000000000000081526004016107e8906124d6565b60405180910390fd5b600360008373ffffffffffffffffffffffffffffffffffffffff1673ffffffffffffffffffffffffffffffffffffffff168152602001908152602001600020549050919050565b610840611212565b61084a6000611290565b565b6000610856611212565b6101f46007541061089c576040517f08c379a0000000000000000000000000000000000000000000000000000000008152600401610893906123f6565b60405180910390fd5b6001600760008282546108af919061266a565b925050819055506108c282600754611356565b6001600a6000600754815260200190815260200160002060006101000a81548160ff0219169083151502179055506007549050919050565b6000600660009054906101000a900473ffffffffffffffffffffffffffffffffffffffff16905090565b60606001805461093390612776565b80601f016020809104026020016040519081016040528092919081815260200182805461095f90612776565b80156109ac5780601f10610981576101008083540402835291602001916109ac565b820191906000526020600020905b81548152906001019060200180831161098f57829003601f168201915b5050505050905090565b6109c86109c1610d85565b8383611574565b5050565b6109dd6109d7610d85565b83610e46565b610a1c576040517f08c379a0000000000000000000000000000000000000000000000000000000008152600401610a13906123d6565b60405180910390fd5b610a28848484846116e1565b50505050565b60606000610a3a61173d565b90506000815111610a5a5760405180602001604052806000815250610b02565b806101f4841115610aa0576040518060400160405280600781526020017f636f6d6d6f6e2f00000000000000000000000000000000000000000000000000815250610ad7565b6040518060400160405280600581526020017f726172652f0000000000000000000000000000000000000000000000000000008152505b610ae0856117cf565b604051602001610af293929190612301565b6040516020818303038152906040525b915050919050565b6000610b14611212565b6103e860085410610b5a576040517f08c379a0000000000000000000000000000000000000000000000000000000008152600401610b5190612596565b60405180910390fd5b600160086000828254610b6d919061266a565b92505081905550610b8082600854611356565b6001600a6000600854815260200190815260200160002060006101000a81548160ff0219169083151502179055506008549050919050565b6000600560008473ffffffffffffffffffffffffffffffffffffffff1673ffffffffffffffffffffffffffffffffffffffff16815260200190815260200160002060008373ffffffffffffffffffffffffffffffffffffffff1673ffffffffffffffffffffffffffffffffffffffff16815260200190815260200160002060009054906101000a900460ff16905092915050565b610c54611212565b600073ffffffffffffffffffffffffffffffffffffffff168173ffffffffffffffffffffffffffffffffffffffff161415610cc4576040517f08c379a0000000000000000000000000000000000000000000000000000000008152600401610cbb90612436565b60405180910390fd5b610ccd81611290565b50565b60007f01ffc9a7000000000000000000000000000000000000000000000000000000007bffffffffffffffffffffffffffffffffffffffffffffffffffffffff1916827bffffffffffffffffffffffffffffffffffffffffffffffffffffffff1916149050919050565b610d43816118f3565b610d82576040517f08c379a0000000000000000000000000000000000000000000000000000000008152600401610d7990612536565b60405180910390fd5b50565b600033905090565b816004600083815260200190815260200160002060006101000a81548173ffffffffffffffffffffffffffffffffffffffff021916908373ffffffffffffffffffffffffffffffffffffffff160217905550808273ffffffffffffffffffffffffffffffffffffffff16610e00836106f9565b73ffffffffffffffffffffffffffffffffffffffff167f8c5be1e5ebec7d5bd14f71427d1e84f3dd0314c0f7b2291e5b200ac8c7c3b92560405160405180910390a45050565b600080610e52836106f9565b90508073ffffffffffffffffffffffffffffffffffffffff168473ffffffffffffffffffffffffffffffffffffffff161480610e945750610e938185610bb8565b5b80610ed257508373ffffffffffffffffffffffffffffffffffffffff16610eba8461051b565b73ffffffffffffffffffffffffffffffffffffffff16145b91505092915050565b8273ffffffffffffffffffffffffffffffffffffffff16610efb826106f9565b73ffffffffffffffffffffffffffffffffffffffff1614610f51576040517f08c379a0000000000000000000000000000000000000000000000000000000008152600401610f4890612456565b60405180910390fd5b600073ffffffffffffffffffffffffffffffffffffffff168273ffffffffffffffffffffffffffffffffffffffff161415610fc1576040517f08c379a0000000000000000000000000000000000000000000000000000000008152600401610fb890612496565b60405180910390fd5b610fce8383836001611934565b8273ffffffffffffffffffffffffffffffffffffffff16610fee826106f9565b73ffffffffffffffffffffffffffffffffffffffff1614611044576040517f08c379a000000000000000000000000000000000000000000000000000000000815260040161103b90612456565b60405180910390fd5b6004600082815260200190815260200160002060006101000a81549073ffffffffffffffffffffffffffffffffffffffff02191690556001600360008573ffffffffffffffffffffffffffffffffffffffff1673ffffffffffffffffffffffffffffffffffffffff168152602001908152602001600020600082825403925050819055506001600360008473ffffffffffffffffffffffffffffffffffffffff1673ffffffffffffffffffffffffffffffffffffffff16815260200190815260200160002060008282540192505081905550816002600083815260200190815260200160002060006101000a81548173ffffffffffffffffffffffffffffffffffffffff021916908373ffffffffffffffffffffffffffffffffffffffff160217905550808273ffffffffffffffffffffffffffffffffffffffff168473ffffffffffffffffffffffffffffffffffffffff167fddf252ad1be2c89b69c2b068fc378daa952ba7f163c4a11628f55a4df523b3ef60405160405180910390a46111d0838383600161193a565b505050565b60006002600083815260200190815260200160002060009054906101000a900473ffffffffffffffffffffffffffffffffffffffff169050919050565b61121a610d85565b73ffffffffffffffffffffffffffffffffffffffff166112386108fa565b73ffffffffffffffffffffffffffffffffffffffff161461128e576040517f08c379a000000000000000000000000000000000000000000000000000000000815260040161128590612516565b60405180910390fd5b565b6000600660009054906101000a900473ffffffffffffffffffffffffffffffffffffffff16905081600660006101000a81548173ffffffffffffffffffffffffffffffffffffffff021916908373ffffffffffffffffffffffffffffffffffffffff1602179055508173ffffffffffffffffffffffffffffffffffffffff168173ffffffffffffffffffffffffffffffffffffffff167f8be0079c531659141344cd1fd0a4f28419497f9722a3daafe3b4186f6b6457e060405160405180910390a35050565b600073ffffffffffffffffffffffffffffffffffffffff168273ffffffffffffffffffffffffffffffffffffffff1614156113c6576040517f08c379a00000000000000000000000000000000000000000000000000000000081526004016113bd906124f6565b60405180910390fd5b6113cf816118f3565b1561140f576040517f08c379a000000000000000000000000000000000000000000000000000000000815260040161140690612476565b60405180910390fd5b61141d600083836001611934565b611426816118f3565b15611466576040517f08c379a000000000000000000000000000000000000000000000000000000000815260040161145d90612476565b60405180910390fd5b6001600360008473ffffffffffffffffffffffffffffffffffffffff1673ffffffffffffffffffffffffffffffffffffffff16815260200190815260200160002060008282540192505081905550816002600083815260200190815260200160002060006101000a81548173ffffffffffffffffffffffffffffffffffffffff021916908373ffffffffffffffffffffffffffffffffffffffff160217905550808273ffffffffffffffffffffffffffffffffffffffff16600073ffffffffffffffffffffffffffffffffffffffff167fddf252ad1be2c89b69c2b068fc378daa952ba7f163c4a11628f55a4df523b3ef60405160405180910390a461157060008383600161193a565b5050565b8173ffffffffffffffffffffffffffffffffffffffff168373ffffffffffffffffffffffffffffffffffffffff1614156115e3576040517f08c379a00000000000000000000000000000000000000000000000000000000081526004016115da906124b6565b60405180910390fd5b80600560008573ffffffffffffffffffffffffffffffffffffffff1673ffffffffffffffffffffffffffffffffffffffff16815260200190815260200160002060008473ffffffffffffffffffffffffffffffffffffffff1673ffffffffffffffffffffffffffffffffffffffff16815260200190815260200160002060006101000a81548160ff0219169083151502179055508173ffffffffffffffffffffffffffffffffffffffff168373ffffffffffffffffffffffffffffffffffffffff167f17307eab39ab6107e8899845ad3d59bd9653f200f220920489ca2b5937696c31836040516116d49190612399565b60405180910390a3505050565b6116ec848484610edb565b6116f884848484611940565b611737576040517f08c379a000000000000000000000000000000000000000000000000000000000815260040161172e90612416565b60405180910390fd5b50505050565b60606009805461174c90612776565b80601f016020809104026020016040519081016040528092919081815260200182805461177890612776565b80156117c55780601f1061179a576101008083540402835291602001916117c5565b820191906000526020600020905b8154815290600101906020018083116117a857829003601f168201915b5050505050905090565b6060600060016117de84611ad7565b01905060008167ffffffffffffffff811115611823577f4e487b7100000000000000000000000000000000000000000000000000000000600052604160045260246000fd5b6040519080825280601f01601f1916602001820160405280156118555781602001600182028036833780820191505090505b509050600082602001820190505b6001156118e8578080600190039150507f3031323334353637383961626364656600000000000000000000000000000000600a86061a8153600a85816118d2577f4e487b7100000000000000000000000000000000000000000000000000000000600052601260045260246000fd5b04945060008514156118e3576118e8565b611863565b819350505050919050565b60008073ffffffffffffffffffffffffffffffffffffffff16611915836111d5565b73ffffffffffffffffffffffffffffffffffffffff1614159050919050565b50505050565b50505050565b60006119618473ffffffffffffffffffffffffffffffffffffffff16611d0e565b15611aca578373ffffffffffffffffffffffffffffffffffffffff1663150b7a0261198a610d85565b8786866040518563ffffffff1660e01b81526004016119ac949392919061234d565b602060405180830381600087803b1580156119c657600080fd5b505af19250505080156119f757506040513d601f19601f820116820180604052508101906119f49190611fd2565b60015b611a7a573d8060008114611a27576040519150601f19603f3d011682016040523d82523d6000602084013e611a2c565b606091505b50600081511415611a72576040517f08c379a0000000000000000000000000000000000000000000000000000000008152600401611a6990612416565b60405180910390fd5b805181602001fd5b63150b7a0260e01b7bffffffffffffffffffffffffffffffffffffffffffffffffffffffff1916817bffffffffffffffffffffffffffffffffffffffffffffffffffffffff191614915050611acf565b600190505b949350505050565b600080600090507a184f03e93ff9f4daa797ed6e38ed64bf6a1f0100000000000000008310611b5b577a184f03e93ff9f4daa797ed6e38ed64bf6a1f0100000000000000008381611b51577f4e487b7100000000000000000000000000000000000000000000000000000000600052601260045260246000fd5b0492506040810190505b6d04ee2d6d415b85acef81000000008310611bbe576d04ee2d6d415b85acef81000000008381611bb4577f4e487b7100000000000000000000000000000000000000000000000000000000600052601260045260246000fd5b0492506020810190505b662386f26fc100008310611c1357662386f26fc100008381611c09577f4e487b7100000000000000000000000000000000000000000000000000000000600052601260045260246000fd5b0492506010810190505b6305f5e1008310611c62576305f5e1008381611c58577f4e487b7100000000000000000000000000000000000000000000000000000000600052601260045260246000fd5b0492506008810190505b6127108310611cad576127108381611ca3577f4e487b7100000000000000000000000000000000000000000000000000000000600052601260045260246000fd5b0492506004810190505b60648310611cf65760648381611cec577f4e487b7100000000000000000000000000000000000000000000000000000000600052601260045260246000fd5b0492506002810190505b600a8310611d05576001810190505b80915050919050565b6000808273ffffffffffffffffffffffffffffffffffffffff163b119050919050565b6000611d44611d3f846125f6565b6125d1565b905082815260208101848484011115611d5c57600080fd5b611d67848285612734565b509392505050565b600081359050611d7e81612c34565b92915050565b600081359050611d9381612c4b565b92915050565b600081359050611da881612c62565b92915050565b600081519050611dbd81612c62565b92915050565b600082601f830112611dd457600080fd5b8135611de4848260208601611d31565b91505092915050565b600081359050611dfc81612c79565b92915050565b600060208284031215611e1457600080fd5b6000611e2284828501611d6f565b91505092915050565b60008060408385031215611e3e57600080fd5b6000611e4c85828601611d6f565b9250506020611e5d85828601611d6f565b9150509250929050565b600080600060608486031215611e7c57600080fd5b6000611e8a86828701611d6f565b9350506020611e9b86828701611d6f565b9250506040611eac86828701611ded565b9150509250925092565b60008060008060808587031215611ecc57600080fd5b6000611eda87828801611d6f565b9450506020611eeb87828801611d6f565b9350506040611efc87828801611ded565b925050606085013567ffffffffffffffff811115611f1957600080fd5b611f2587828801611dc3565b91505092959194509250565b60008060408385031215611f4457600080fd5b6000611f5285828601611d6f565b9250506020611f6385828601611d84565b9150509250929050565b60008060408385031215611f8057600080fd5b6000611f8e85828601611d6f565b9250506020611f9f85828601611ded565b9150509250929050565b600060208284031215611fbb57600080fd5b6000611fc984828501611d99565b91505092915050565b600060208284031215611fe457600080fd5b6000611ff284828501611dae565b91505092915050565b60006020828403121561200d57600080fd5b600061201b84828501611ded565b91505092915050565b61202d816126c0565b82525050565b61203c816126d2565b82525050565b600061204d82612627565b612057818561263d565b9350612067818560208601612743565b61207081612866565b840191505092915050565b600061208682612632565b612090818561264e565b93506120a0818560208601612743565b6120a981612866565b840191505092915050565b60006120bf82612632565b6120c9818561265f565b93506120d9818560208601612743565b80840191505092915050565b60006120f2602d8361264e565b91506120fd82612877565b604082019050919050565b600061211560208361264e565b9150612120826128c6565b602082019050919050565b600061213860328361264e565b9150612143826128ef565b604082019050919050565b600061215b60268361264e565b91506121668261293e565b604082019050919050565b600061217e60258361264e565b91506121898261298d565b604082019050919050565b60006121a1601c8361264e565b91506121ac826129dc565b602082019050919050565b60006121c460248361264e565b91506121cf82612a05565b604082019050919050565b60006121e760198361264e565b91506121f282612a54565b602082019050919050565b600061220a60298361264e565b915061221582612a7d565b604082019050919050565b600061222d60208361264e565b915061223882612acc565b602082019050919050565b600061225060208361264e565b915061225b82612af5565b602082019050919050565b600061227360188361264e565b915061227e82612b1e565b602082019050919050565b600061229660218361264e565b91506122a182612b47565b604082019050919050565b60006122b9603d8361264e565b91506122c482612b96565b604082019050919050565b60006122dc60228361264e565b91506122e782612be5565b604082019050919050565b6122fb8161272a565b82525050565b600061230d82866120b4565b915061231982856120b4565b915061232582846120b4565b9150819050949350505050565b60006020820190506123476000830184612024565b92915050565b60006080820190506123626000830187612024565b61236f6020830186612024565b61237c60408301856122f2565b818103606083015261238e8184612042565b905095945050505050565b60006020820190506123ae6000830184612033565b92915050565b600060208201905081810360008301526123ce818461207b565b905092915050565b600060208201905081810360008301526123ef816120e5565b9050919050565b6000602082019050818103600083015261240f81612108565b9050919050565b6000602082019050818103600083015261242f8161212b565b9050919050565b6000602082019050818103600083015261244f8161214e565b9050919050565b6000602082019050818103600083015261246f81612171565b9050919050565b6000602082019050818103600083015261248f81612194565b9050919050565b600060208201905081810360008301526124af816121b7565b9050919050565b600060208201905081810360008301526124cf816121da565b9050919050565b600060208201905081810360008301526124ef816121fd565b9050919050565b6000602082019050818103600083015261250f81612220565b9050919050565b6000602082019050818103600083015261252f81612243565b9050919050565b6000602082019050818103600083015261254f81612266565b9050919050565b6000602082019050818103600083015261256f81612289565b9050919050565b6000602082019050818103600083015261258f816122ac565b9050919050565b600060208201905081810360008301526125af816122cf565b9050919050565b60006020820190506125cb60008301846122f2565b92915050565b60006125db6125ec565b90506125e782826127a8565b919050565b6000604051905090565b600067ffffffffffffffff82111561261157612610612837565b5b61261a82612866565b9050602081019050919050565b600081519050919050565b600081519050919050565b600082825260208201905092915050565b600082825260208201905092915050565b600081905092915050565b60006126758261272a565b91506126808361272a565b9250827fffffffffffffffffffffffffffffffffffffffffffffffffffffffffffffffff038211156126b5576126b46127d9565b5b828201905092915050565b60006126cb8261270a565b9050919050565b60008115159050919050565b60007fffffffff0000000000000000000000000000000000000000000000000000000082169050919050565b600073ffffffffffffffffffffffffffffffffffffffff82169050919050565b6000819050919050565b82818337600083830152505050565b60005b83811015612761578082015181840152602081019050612746565b83811115612770576000848401525b50505050565b6000600282049050600182168061278e57607f821691505b602082108114156127a2576127a1612808565b5b50919050565b6127b182612866565b810181811067ffffffffffffffff821117156127d0576127cf612837565b5b80604052505050565b7f4e487b7100000000000000000000000000000000000000000000000000000000600052601160045260246000fd5b7f4e487b7100000000000000000000000000000000000000000000000000000000600052602260045260246000fd5b7f4e487b7100000000000000000000000000000000000000000000000000000000600052604160045260246000fd5b6000601f19601f8301169050919050565b7f4552433732313a2063616c6c6572206973206e6f7420746f6b656e206f776e6560008201527f72206f7220617070726f76656400000000000000000000000000000000000000602082015250565b7f416c6c207261726520746f6b656e732068617665206265656e206d696e746564600082015250565b7f4552433732313a207472616e7366657220746f206e6f6e20455243373231526560008201527f63656976657220696d706c656d656e7465720000000000000000000000000000602082015250565b7f4f776e61626c653a206e6577206f776e657220697320746865207a65726f206160008201527f6464726573730000000000000000000000000000000000000000000000000000602082015250565b7f4552433732313a207472616e736665722066726f6d20696e636f72726563742060008201527f6f776e6572000000000000000000000000000000000000000000000000000000602082015250565b7f4552433732313a20746f6b656e20616c7265616479206d696e74656400000000600082015250565b7f4552433732313a207472616e7366657220746f20746865207a65726f2061646460008201527f7265737300000000000000000000000000000000000000000000000000000000602082015250565b7f4552433732313a20617070726f766520746f2063616c6c657200000000000000600082015250565b7f4552433732313a2061646472657373207a65726f206973206e6f74206120766160008201527f6c6964206f776e65720000000000000000000000000000000000000000000000602082015250565b7f4552433732313a206d696e7420746f20746865207a65726f2061646472657373600082015250565b7f4f776e61626c653a2063616c6c6572206973206e6f7420746865206f776e6572600082015250565b7f4552433732313a20696e76616c696420746f6b656e2049440000000000000000600082015250565b7f4552433732313a20617070726f76616c20746f2063757272656e74206f776e6560008201527f7200000000000000000000000000000000000000000000000000000000000000602082015250565b7f4552433732313a20617070726f76652063616c6c6572206973206e6f7420746f60008201527f6b656e206f776e6572206f7220617070726f76656420666f7220616c6c000000602082015250565b7f416c6c20636f6d6d6f6e20746f6b656e732068617665206265656e206d696e7460008201527f6564000000000000000000000000000000000000000000000000000000000000602082015250565b612c3d816126c0565b8114612c4857600080fd5b50565b612c54816126d2565b8114612c5f57600080fd5b50565b612c6b816126de565b8114612c7657600080fd5b50565b612c828161272a565b8114612c8d57600080fd5b5056fea2646970667358221220e6b3174359461acaf273116b87bdab8373df3e0ddc53956a8119901deb57eaae64736f6c63430008040033",
  "immutableReferences": {},
  "source": "// SPDX-License-Identifier: MIT\n\npragma solidity ^0.8.0;\n\nimport \"@openzeppelin/contracts/token/ERC721/ERC721.sol\";\nimport \"@openzeppelin/contracts/access/Ownable.sol\";\nimport \"@openzeppelin/contracts/utils/Strings.sol\";\n\ncontract PixelPunks is ERC721, Ownable {\n    using Strings for uint256;\n\n    uint256 private _rareTokenIds = 0;\n    uint256 private _commonTokenIds = 500;\n    string private _baseTokenURI;\n    mapping (uint256 => bool) private _mintedTokens;\n\n    constructor(string memory baseTokenURI) ERC721(\"Pixel Punks\", \"PPNK\") {\n        _baseTokenURI = baseTokenURI;\n    }\n\n    function mintRare(address to) public onlyOwner returns (uint256) {\n        require(_rareTokenIds < 500, \"All rare tokens have been minted\");\n\n        _rareTokenIds += 1;\n        _mint(to, _rareTokenIds);\n        _mintedTokens[_rareTokenIds] = true;\n        return _rareTokenIds;\n    }\n\n    function mintCommon(address to) public onlyOwner returns (uint256) {\n        require(_commonTokenIds < 1000, \"All common tokens have been minted\");\n\n        _commonTokenIds += 1;\n        _mint(to, _commonTokenIds);\n        _mintedTokens[_commonTokenIds] = true;\n        return _commonTokenIds;\n    }\n\n    function _baseURI() internal view override returns (string memory) {\n        return _baseTokenURI;\n    }\n\n    function tokenURI(uint256 tokenId) public view virtual override returns (string memory) {\n        string memory baseURI = _baseURI();\n        return bytes(baseURI).length > 0 ? string(abi.encodePacked(baseURI, tokenId <= 500 ? \"rare/\" : \"common/\", tokenId.toString())) : \"\";\n    }\n}\n",
  "sourcePath": "/Users/anush/pixel_punks/contracts/PixelPunks.sol",
  "compiler": {
    "name": "solc",
    "version": "0.8.4+commit.c7e474f2.Emscripten.clang"
  },
  "schemaVersion": "3.4.13",
  "updatedAt": "2023-06-06T09:42:59.869Z",
  "networkType": "ethereum",
  "devdoc": {
    "kind": "dev",
    "methods": {
      "approve(address,uint256)": {
        "details": "See {IERC721-approve}."
      },
      "balanceOf(address)": {
        "details": "See {IERC721-balanceOf}."
      },
      "getApproved(uint256)": {
        "details": "See {IERC721-getApproved}."
      },
      "isApprovedForAll(address,address)": {
        "details": "See {IERC721-isApprovedForAll}."
      },
      "name()": {
        "details": "See {IERC721Metadata-name}."
      },
      "owner()": {
        "details": "Returns the address of the current owner."
      },
      "ownerOf(uint256)": {
        "details": "See {IERC721-ownerOf}."
      },
      "renounceOwnership()": {
        "details": "Leaves the contract without owner. It will not be possible to call `onlyOwner` functions. Can only be called by the current owner. NOTE: Renouncing ownership will leave the contract without an owner, thereby disabling any functionality that is only available to the owner."
      },
      "safeTransferFrom(address,address,uint256)": {
        "details": "See {IERC721-safeTransferFrom}."
      },
      "safeTransferFrom(address,address,uint256,bytes)": {
        "details": "See {IERC721-safeTransferFrom}."
      },
      "setApprovalForAll(address,bool)": {
        "details": "See {IERC721-setApprovalForAll}."
      },
      "supportsInterface(bytes4)": {
        "details": "See {IERC165-supportsInterface}."
      },
      "symbol()": {
        "details": "See {IERC721Metadata-symbol}."
      },
      "tokenURI(uint256)": {
        "details": "See {IERC721Metadata-tokenURI}."
      },
      "transferFrom(address,address,uint256)": {
        "details": "See {IERC721-transferFrom}."
      },
      "transferOwnership(address)": {
        "details": "Transfers ownership of the contract to a new account (`newOwner`). Can only be called by the current owner."
      }
    },
    "version": 1
  },
  "userdoc": {
    "kind": "user",
    "methods": {},
    "version": 1
  }
}